{
  "contractName": "Auction",
  "abi": [
    {
      "constant": true,
      "inputs": [],
      "name": "canceled",
      "outputs": [
        {
          "name": "",
          "type": "bool"
        }
      ],
      "payable": false,
      "stateMutability": "view",
      "type": "function",
      "signature": "0x3f9942ff"
    },
    {
      "constant": true,
      "inputs": [
        {
          "name": "",
          "type": "address"
        }
      ],
      "name": "bidder",
      "outputs": [
        {
          "name": "",
          "type": "uint256"
        }
      ],
      "payable": false,
      "stateMutability": "view",
      "type": "function",
      "signature": "0x58042958"
    },
    {
      "constant": true,
      "inputs": [],
      "name": "auction_start",
      "outputs": [
        {
          "name": "",
          "type": "uint256"
        }
      ],
      "payable": false,
      "stateMutability": "view",
      "type": "function",
      "signature": "0x78f45340"
    },
    {
      "constant": true,
      "inputs": [],
      "name": "highestBidder",
      "outputs": [
        {
          "name": "",
          "type": "address"
        }
      ],
      "payable": false,
      "stateMutability": "view",
      "type": "function",
      "signature": "0x91f90157"
    },
    {
      "constant": true,
      "inputs": [],
      "name": "auction_end",
      "outputs": [
        {
          "name": "",
          "type": "uint256"
        }
      ],
      "payable": false,
      "stateMutability": "view",
      "type": "function",
      "signature": "0xc458b65a"
    },
    {
      "constant": true,
      "inputs": [],
      "name": "highestBid",
      "outputs": [
        {
          "name": "",
          "type": "uint256"
        }
      ],
      "payable": false,
      "stateMutability": "view",
      "type": "function",
      "signature": "0xd57bde79"
    },
    {
      "constant": true,
      "inputs": [],
      "name": "startingPrice",
      "outputs": [
        {
          "name": "",
          "type": "uint256"
        }
      ],
      "payable": false,
      "stateMutability": "view",
      "type": "function",
      "signature": "0xd6fbf202"
    },
    {
      "constant": true,
      "inputs": [],
      "name": "totalBidders",
      "outputs": [
        {
          "name": "",
          "type": "uint256"
        }
      ],
      "payable": false,
      "stateMutability": "view",
      "type": "function",
      "signature": "0xde71bf07"
    },
    {
      "inputs": [
        {
          "name": "_end",
          "type": "uint256"
        },
        {
          "name": "_highestBid",
          "type": "uint256"
        }
      ],
      "payable": false,
      "stateMutability": "nonpayable",
      "type": "constructor",
      "signature": "constructor"
    },
    {
      "anonymous": false,
      "inputs": [
        {
          "indexed": true,
          "name": "buyer",
          "type": "address"
        },
        {
          "indexed": false,
          "name": "totalBidders",
          "type": "uint256"
        },
        {
          "indexed": false,
          "name": "amount",
          "type": "uint256"
        }
      ],
      "name": "BidEvent",
      "type": "event",
      "signature": "0x8af6b8ce9e717802e71d82fde14340886903c7ba4a5513f0a177b5ae534066bf"
    },
    {
      "anonymous": false,
      "inputs": [
        {
          "indexed": false,
          "name": "withdrawer",
          "type": "address"
        },
        {
          "indexed": false,
          "name": "amount",
          "type": "uint256"
        }
      ],
      "name": "WithdrawalEvent",
      "type": "event",
      "signature": "0x2f174ca282119315c59efaf21147aef438581dabdeb498198ae28964373dd8bc"
    },
    {
      "anonymous": false,
      "inputs": [
        {
          "indexed": false,
          "name": "message",
          "type": "string"
        }
      ],
      "name": "CloseEvent",
      "type": "event",
      "signature": "0xb27df7c3fa4dca4f8f7b5980dd657d21a7a6d0f1adc4436b0e9ec782a5495997"
    },
    {
      "constant": true,
      "inputs": [],
      "name": "getInfo",
      "outputs": [
        {
          "name": "_highestBid",
          "type": "uint256"
        },
        {
          "name": "_startingPrice",
          "type": "uint256"
        },
        {
          "name": "_highestBidder",
          "type": "address"
        },
        {
          "name": "_canceled",
          "type": "bool"
        },
        {
          "name": "_totalBidders",
          "type": "uint256"
        },
        {
          "name": "_auction_end",
          "type": "uint256"
        },
        {
          "name": "_owner",
          "type": "address"
        }
      ],
      "payable": false,
      "stateMutability": "view",
      "type": "function",
      "signature": "0x5a9b0b89"
    },
    {
      "constant": false,
      "inputs": [
        {
          "name": "sum",
          "type": "uint256"
        }
      ],
      "name": "placeBid",
      "outputs": [],
      "payable": true,
      "stateMutability": "payable",
      "type": "function",
      "signature": "0x9979ef45"
    },
    {
      "constant": true,
      "inputs": [],
      "name": "getCurrentInvestment",
      "outputs": [
        {
          "name": "_bid",
          "type": "uint256"
        }
      ],
      "payable": false,
      "stateMutability": "view",
      "type": "function",
      "signature": "0x63b6d766"
    },
    {
      "constant": true,
      "inputs": [],
      "name": "getHighestBid",
      "outputs": [
        {
          "name": "",
          "type": "uint256"
        }
      ],
      "payable": false,
      "stateMutability": "view",
      "type": "function",
      "signature": "0x4979440a"
    },
    {
      "constant": true,
      "inputs": [],
      "name": "getHighestBidder",
      "outputs": [
        {
          "name": "",
          "type": "address"
        }
      ],
      "payable": false,
      "stateMutability": "view",
      "type": "function",
      "signature": "0x003495a4"
    },
    {
      "constant": true,
      "inputs": [],
      "name": "getStartingPrice",
      "outputs": [
        {
          "name": "",
          "type": "uint256"
        }
      ],
      "payable": false,
      "stateMutability": "view",
      "type": "function",
      "signature": "0xcebd31bc"
    },
    {
      "constant": true,
      "inputs": [],
      "name": "getEnd",
      "outputs": [
        {
          "name": "",
          "type": "uint256"
        }
      ],
      "payable": false,
      "stateMutability": "view",
      "type": "function",
      "signature": "0x9f05a36d"
    },
    {
      "constant": false,
      "inputs": [],
      "name": "withdraw",
      "outputs": [
        {
          "name": "",
          "type": "bool"
        }
      ],
      "payable": false,
      "stateMutability": "nonpayable",
      "type": "function",
      "signature": "0x3ccfd60b"
    },
    {
      "constant": false,
      "inputs": [],
      "name": "CloseAuction",
      "outputs": [
        {
          "name": "",
          "type": "bool"
        }
      ],
      "payable": false,
      "stateMutability": "nonpayable",
      "type": "function",
      "signature": "0x9b89102a"
    }
  ],
  "bytecode": "0x60806040526004805460a860020a60ff021916905534801561002057600080fd5b506040516040806107868339810180604052604081101561004057600080fd5b50805160209091015160008054600160a060020a03191633178155426001819055603c9093029092016002556005556004805460a060020a60ff02191690556006556106f5806100916000396000f3fe6080604052600436106100ef5763ffffffff7c01000000000000000000000000000000000000000000000000000000006000350416623495a481146100f45780633ccfd60b146101255780633f9942ff1461014e5780634979440a14610163578063580429581461018a5780635a9b0b89146101bd57806363b6d7661461021657806378f453401461022b57806391f90157146102405780639979ef45146102555780639b89102a146102745780639f05a36d14610289578063c458b65a1461029e578063cebd31bc146102b3578063d57bde79146102c8578063d6fbf202146102dd578063de71bf07146102f2575b600080fd5b34801561010057600080fd5b50610109610307565b60408051600160a060020a039092168252519081900360200190f35b34801561013157600080fd5b5061013a610316565b604080519115158252519081900360200190f35b34801561015a57600080fd5b5061013a610454565b34801561016f57600080fd5b50610178610464565b60408051918252519081900360200190f35b34801561019657600080fd5b50610178600480360360208110156101ad57600080fd5b5035600160a060020a031661046a565b3480156101c957600080fd5b506101d261047c565b604080519788526020880196909652600160a060020a03948516878701529215156060870152608086019190915260a08501521660c0830152519081900360e00190f35b34801561022257600080fd5b506101786104af565b34801561023757600080fd5b506101786104c2565b34801561024c57600080fd5b506101096104c8565b6102726004803603602081101561026b57600080fd5b50356104d7565b005b34801561028057600080fd5b5061013a6105d0565b34801561029557600080fd5b506101786106a5565b3480156102aa57600080fd5b506101786106ab565b3480156102bf57600080fd5b506101786106b1565b3480156102d457600080fd5b506101786106b7565b3480156102e957600080fd5b506101786106bd565b3480156102fe57600080fd5b506101786106c3565b600454600160a060020a031690565b600060025442101580610337575060045460a060020a900460ff1615156001145b151561034257600080fd5b600080600460149054906101000a900460ff161515600115151480156103735750600054600160a060020a03163314155b1561039057505033600081815260076020526040902054906103df565b600054600160a060020a03163314156103b9575050600354600454600160a060020a03166103df565b600454600160a060020a031633146103df57505033600081815260076020526040902054905b600082116103ec57600080fd5b600160a060020a038116600081815260076020908152604080832092909255600680546000190190558151928352820184905280517f2f174ca282119315c59efaf21147aef438581dabdeb498198ae28964373dd8bc9281900390910190a160019250505090565b60045460a060020a900460ff1681565b60035490565b60076020526000908152604090205481565b60035460055460045460065460025460005494959394600160a060020a038085169560a060020a90950460ff1694911690565b3360009081526007602052604090205490565b60015481565b600454600160a060020a031681565b60025442106104e557600080fd5b600054600160a060020a03163314156104fd57600080fd5b60045460a060020a900460ff161561051457600080fd5b600354811161052257600080fd5b60038190553360009081526007602052604090205481901515610549576006805460010190555b336000818152600760209081526040918290208490556004805473ffffffffffffffffffffffffffffffffffffffff1916909317928390556006546003548351918252918101919091528151600160a060020a03909316927f8af6b8ce9e717802e71d82fde14340886903c7ba4a5513f0a177b5ae534066bf929181900390910190a25050565b60008054600160a060020a031633146105e857600080fd5b60025442106105f657600080fd5b60045460a060020a900460ff161561060d57600080fd5b60048054600060038190556005554260025574ffffffffffffffffffffffffffffffffffffffffff191660a060020a179055604080516020808252600a908201527f466f726365436c6f7365000000000000000000000000000000000000000000008183015290517fb27df7c3fa4dca4f8f7b5980dd657d21a7a6d0f1adc4436b0e9ec782a54959979181900360600190a150600190565b60025490565b60025481565b60055490565b60035481565b60055481565b6006548156fea165627a7a723058201d48502f17a1a777cbeb691bfff87937f6af08a83e246071f8e1dc40407a34960029",
  "source": "pragma solidity >=0.5.0 <0.7.0;\r\n\r\ncontract Auction {\r\naddress internal owner; \r\nuint public auction_start;\r\nuint public auction_end;\r\nuint public highestBid;\r\naddress public highestBidder;\r\nbool public canceled;\r\nbool internal ownerHasWithdrawn = false;\r\nuint public startingPrice;\r\nuint public totalBidders;\r\nmapping(address => uint256) public bidder;\r\n\r\nconstructor(uint _end, uint _highestBid) public{\r\n    \r\n    owner = msg.sender;\r\n    auction_start = now;\r\n    auction_end = auction_start +  _end* 1 minutes; \r\n    startingPrice = _highestBid;\r\n    canceled = false;\r\n    totalBidders= 0;\r\n    \r\n}\r\n\r\n\r\nmodifier an_ongoing_auction() {require(now < auction_end);\r\n    _;\r\n}\r\n\r\nmodifier only_owner() {require(msg.sender == owner);\r\n    _;\r\n}\r\n\r\nmodifier not_owner() {require(msg.sender != owner);\r\n    _;\r\n}\r\n\r\nmodifier not_canceled(){require(canceled == false);\r\n    _;\r\n}\r\nmodifier endOrCanceled(){require(now >= auction_end || canceled == true);\r\n    _;\r\n}\r\n\r\nfunction getInfo() view public returns(uint _highestBid, uint _startingPrice, address _highestBidder , bool _canceled , uint _totalBidders, uint _auction_end, address _owner){\r\n\r\nreturn(highestBid, startingPrice, highestBidder, canceled, totalBidders, auction_end, owner);\r\n}\r\n\r\nfunction placeBid(uint sum) public payable \r\nan_ongoing_auction\r\nnot_owner\r\nnot_canceled\r\n{\r\n    \r\n    require(sum > highestBid);\r\n    uint newBid = sum; \r\n    highestBid = newBid;\r\n    if(bidder[msg.sender] == 0){\r\n        totalBidders++;\r\n    }\r\n    bidder[msg.sender] = newBid;\r\n    highestBidder = msg.sender;\r\n\r\n    \r\n    \r\n    emit BidEvent(highestBidder, totalBidders, highestBid);\r\n}\r\n\r\nfunction getCurrentInvestment() view public  returns (uint _bid){\r\n    return bidder[msg.sender];\r\n}\r\n\r\nfunction getHighestBid() view public  returns (uint){\r\n    return highestBid;\r\n}\r\n\r\nfunction getHighestBidder() view public  returns (address){\r\n\r\n    return highestBidder;\r\n}\r\n\r\nfunction getStartingPrice() view public  returns (uint){\r\n    return startingPrice;\r\n}\r\n\r\nfunction getEnd() public view returns (uint){\r\n    return auction_end;\r\n}\r\n\r\nfunction withdraw() public\r\nendOrCanceled\r\nreturns (bool)\r\n{\r\n    uint amount;\r\n    address account;\r\n\r\n\r\n    \r\n    if(canceled == true && msg.sender != owner){\r\n        amount = bidder[msg.sender];\r\n        account = msg.sender;\r\n    }\r\n    \r\n    else{\r\n        if(msg.sender == owner){\r\n            amount = highestBid;\r\n            account = highestBidder;\r\n        }\r\n        \r\n        else if(msg.sender != highestBidder){\r\n            amount = bidder[msg.sender];\r\n            account = msg.sender;\r\n        }\r\n    }\r\n    \r\n    require(amount >0);\r\n    // msg.sender.transfer(amount);\r\n    bidder[account] = 0;\r\n    totalBidders--;\r\n    emit WithdrawalEvent(account, amount);\r\n    return true;\r\n}\r\n\r\n\r\nfunction CloseAuction() external\r\nonly_owner\r\nan_ongoing_auction\r\nnot_canceled\r\nreturns (bool) {\r\n    highestBidder = address(0);\r\n    highestBid = 0;\r\n    startingPrice = 0;\r\n    auction_end = now;\r\n    canceled = true;\r\n    emit CloseEvent(\"ForceClose\");\r\n    return true;\r\n}\r\n\r\n\r\nevent BidEvent(address indexed buyer, uint totalBidders, uint amount);\r\nevent WithdrawalEvent(address withdrawer, uint amount);\r\nevent CloseEvent(string message);\r\n\r\n}",
  "sourcePath": "C:/Users/domin/Desktop/project/contracts/myContract.sol",
  "compiler": {
    "name": "solc",
    "version": "0.5.0+commit.1d4f565a.Emscripten.clang"
  },
  "schemaVersion": "3.0.1",
  "updatedAt": "2020-12-20T13:24:45.389Z",
  "devdoc": {
    "methods": {}
  },
  "userdoc": {
    "methods": {}
  }
}